:100000000C9434000C94A1010C94CA010C9451007E
:100010000C9451000C9451000C9451000C9451001C
:100020000C9451000C9451000C9451000C9451000C
:100030000C9451000C9451000C9402020C94510049
:100040000C9451000C9451000C9451000C945100EC
:100050000C9451000C9451000C9451000C945100DC
:100060000C9451000C94510011241FBECFEFD8E026
:10007000DEBFCDBF11E0A0E0B1E0E2E6FEE002C0ED
:1000800005900D92A232B107D9F721E0A2E2B1E0CA
:1000900001C01D92AE32B207E1F70E9456050C94E2
:1000A0002F070C9400000E9425022091220130911C
:1000B00023014091240150912501621B730B840B95
:1000C000950B683C71058105910540F10E94250260
:1000D0006093220170932301809324019093250162
:1000E00082E00E948304883C910570F441E050E076
:1000F00067E082E090E00E94D60041E050E060E0DE
:1001000080E090E00C94D60040E050E067E082E0B0
:1001100090E00E94D60040E050E0F1CF0895813099
:100120009105D1F08230910561F1892BD9F581E0FB
:1001300090E0A0E0B0E004C0880F991FAA1FBB1F89
:100140006A95D2F724B14130510519F4822B84B954
:10015000089580958223FBCF81E090E0A0E0B0E09D
:1001600004C0880F991FAA1FBB1F6A95D2F727B139
:100170004130510519F4822B87B908958095822367
:10018000FBCF81E090E0A0E0B0E004C0880F991FB1
:10019000AA1FBB1F6A95D2F72AB14130510519F445
:1001A000822B8AB9089580958223FBCF81309105F7
:1001B000C9F08230910551F1892BC1F581E090E0C1
:1001C000A0E0B0E004C0880F991FAA1FBB1F6A956A
:1001D000D2F725B1452B19F0822B85B9089580956A
:1001E0008223FBCF81E090E0A0E0B0E004C0880F64
:1001F000991FAA1FBB1F6A95D2F728B1452B19F08A
:10020000822B88B9089580958223FBCF81E090E00E
:10021000A0E0B0E004C0880F991FAA1FBB1F6A9519
:10022000D2F72BB1452B19F0822B8BB9089580950D
:100230008223FBCF8130910599F08230910591F0B6
:10024000892B91F483B190E0A0E0B0E004C0B695B2
:10025000A795979587956A95D2F781709927089504
:1002600086B1F1CF89B1EFCF80E090E00895813081
:100270009105A1F08230910501F1892B61F525B13D
:1002800081E090E0A0E0B0E004C0880F991FAA1FB1
:10029000BB1F6A95D2F7822785B9089528B181E0FE
:1002A00090E0A0E0B0E004C0880F991FAA1FBB1F18
:1002B0006A95D2F7822788B908952BB181E090E042
:1002C000A0E0B0E004C0880F991FAA1FBB1F6A9569
:1002D000D2F782278BB90895F894813088F4809101
:1002E00069008C7F8093690080916900862B8093E0
:1002F00069004093280150932901E89A7894089561
:10030000E9F780916900837F80936900809169009B
:10031000660F660F682B6093690040932601509327
:100320002701E99AEBCF813010F4E89A089509F497
:10033000E99A0895813010F4E898089509F4E9984D
:1003400008951F920F920FB60F9211242F933F938F
:100350004F935F936F937F938F939F93AF93BF93CD
:10036000EF93FF93E0912801F0912901309709F074
:100370000995FF91EF91BF91AF919F918F917F91DF
:100380006F915F914F913F912F910F900FBE0F9002
:100390001F9018951F920F920FB60F9211242F9352
:1003A0003F934F935F936F937F938F939F93AF93FD
:1003B000BF93EF93FF93E0912601F09127013097CF
:1003C00009F00995FF91EF91BF91AF919F918F91A6
:1003D0007F916F915F914F913F912F910F900FBE41
:1003E0000F901F90189584B5826084BD89EF87BDFA
:1003F000EEE6F0E080818260808385B5836085BD14
:10040000789408951F921FB61F9211248F939F9383
:10041000AF93BF9380912A0190912B01A0912C0161
:10042000B0912D010196A11DB11D80932A019093D9
:100430002B01A0932C01B0932D01BF91AF919F91FF
:100440008F911F901FBE1F9018952FB7F894609141
:100450002A0170912B0180912C0190912D012FBFC9
:10046000089522EA2093800028E120938100709370
:100470008700609386008034910531F148F4813023
:10048000910511F0089779F08091810081600EC08C
:10049000811521E09207E1F081159440A9F7809140
:1004A0008100856003C0809181008260809381001B
:1004B000109289001092880010928B0010928A008E
:1004C00084B1866084B90895809181008360EECF05
:1004D000809181008460EACF20918600309187006E
:1004E0002817390720F48091860090918700909317
:1004F00089008093880008952091860030918700BC
:100500002817390720F480918600909187009093F6
:100510008B0080938A000895E1E8F0E08081887F75
:100520008083089523EA2093B0009C012150310973
:10053000AC01422753272417350798F40E94160769
:1005400001978930910568F480509F4FFC018081AC
:100550008093B1001092B3001092B400239A539A82
:10056000089587E0F5CF8093B30008958093B40099
:100570000895E1EBF0E08081887F808308952F92D9
:100580003F924F925F926F927F928F929F92AF9223
:10059000BF92CF92DF92EF92FF920F931F93CF9370
:1005A000DF93CDB7DEB760970FB6F894DEBF0FBE0E
:1005B000CDBF69017A018111D2C08FEF860F8230E1
:1005C00008F068C08AE0E9E0F1E0DE0111960190F0
:1005D0000D928A95E1F78E010F5F1F4F3E012BE0D0
:1005E000620E711C212C24E2322E24EF422E512C5B
:1005F000F801A080B180D5019601A7010E942407CF
:100600009B01AC01B101C2010E94F406B901CA010B
:1006100061507109810991090097F1F00E5F1F4F38
:100620006016710629F760960FB6F894DEBF0FBE0C
:10063000CDBFDF91CF911F910F91FF90EF90DF9091
:10064000CF90BF90AF909F908F907F906F905F9072
:100650004F903F902F900895A114B10421F3C5014C
:1006600060960FB6F894DEBF0FBECDBFDF91CF917D
:100670001F910F91FF90EF90DF90CF90BF90AF90C0
:100680009F908F907F906F905F904F903F902F90B2
:100690000C943102633039F68EE0E3E1F1E0DE01E3
:1006A000119601900D928A95E1F78E010F5F1F4F11
:1006B0004E012FE0820E911C9FEF792E672C2301B3
:1006C000B12C84E0888BF801A080F181FF870E5F58
:1006D0001F4F3A2C212C910140E050E060E074E281
:1006E00084EF90E00E94F406C216D306E406F506F5
:1006F00078F5C901DA018C199D09AE09BF09841585
:100700009505A605B70528F42C013D01BA2C2F85C7
:10071000288B08151905B9F68B2D988960960FB6A8
:10072000F894DEBF0FBECDBFDF91CF911F910F9127
:10073000FF90EF90DF90CF90BF90AF909F908F9001
:100740007F906F905F904F903F902F900C9492020B
:10075000C601D701821B930BA40BB50BD0CF8230FF
:1007600009F061CF633009F05ECF8EE0E3E1F1E0A4
:10077000DE01119601900D928A95E1F78E010F5FCF
:100780001F4F1E018FE0280E311C8FEF782E672C33
:100790002301B12CE4E0E88BF801A080F181FF8710
:1007A0000E5F1F4F9A2C812C940140E050E060E0D6
:1007B00074E284EF90E00E94F406C216D306E406C9
:1007C000F506A0F4C901DA018C199D09AE09BF092B
:1007D00084159505A605B70528F42C013D01BA2C12
:1007E0002F85288B02151305B9F696CFC601D701C0
:1007F000821B930BA40BB50BEBCF982F842F911179
:1008000028C0613081F4A0918600B0918700242F28
:1008100030E00E94E5062FEF40E050E00E94F40631
:10082000C9010C946C02623081F4A0918600B091F1
:100830008700242F30E00E94E5062FEF40E050E0D3
:100840000E94F406C9010C947C02633041F40C94BC
:10085000B302923021F4633011F40C94B60208957F
:1008600081110AC08FEF860F823010F40C948C0235
:10087000633021F40C94B9028230D1F30895F999D0
:10088000FECF92BD81BDF89A80B50895F999FECF4B
:1008900092BD81BD60BD8FB7F894FA9AF99A8FBF67
:1008A0000895CF93DF9300D00F92CDB7DEB7898341
:1008B0009A836B830E943F049B81891751F0692FB3
:1008C00089819A810F900F900F90DF91CF910C94B6
:1008D00046040F900F900F90DF91CF91089580E420
:1008E00080937C0087E080937A0080917A00806812
:1008F00080937A0080917A0086FDFCCF8091780009
:1009000080917900089590917C008770907F892B69
:1009100080937C0080917A00806480937A0080913B
:100920007A0086FDFCCF8091780020917900922F8B
:1009300008950F931F93CF93DF9300D000D0CDB7CE
:10094000DEB78B019C01A0E0B0E0CD0180179107DC
:10095000A207B30749F40F900F900F900F90DF910B
:10096000CF911F910F91089519821A821B821C82C8
:1009700049815A816B817C81483E534061057105F4
:1009800020F00196A11DB11DE1CF000049815A81DF
:100990006B817C814F5F5F4F6F4F7F4F49835A83DD
:1009A0006B837C83E5CF9A0140E050E0E4E0220FC6
:1009B000331F441F551FEA95D1F70E94F406C90161
:1009C000DA0101979093C5008093C40088E1809379
:1009D000C10086E08093C2000895FC01680F792F62
:1009E000711DE617F70709F408958091C00085FF8F
:1009F000FCCF81918093C600F4CFEF92FF920F93CA
:100A00001F93CF93DF9300D000D000D0CDB7DEB7D7
:100A10008C010E94250269837A838B839C837801F1
:100A20001D821E820E94250229813A814B815C81B0
:100A3000621B730B840B950B693E73408105910516
:100A400028F44D815E8142335105A1F4ED81FE8190
:100A5000E00FF11F10828D819E810F900F900F90FB
:100A60000F900F900F90DF91CF911F910F91FF90FA
:100A7000EF9008958091C00087FFD4CF8091C60089
:100A8000F70181937F010E94250269837A838B831A
:100A90009C83F70182918A30C9F28D30B9F22D81A1
:100AA0003E812F5F3F4F2D833E83BCCF00D000D0CF
:100AB0000F92CDB7DEB70E94F3010E946F0440E0B1
:100AC00050E060E081E090E00E948F0040E050E064
:100AD00061E081E090E00E948F0041E050E065E03D
:100AE00082E090E00E948F0041E050E065E0CA01A2
:100AF0000E948F0041E050E064E0CA010E948F0034
:100B000041E050E064E080E090E00E948F0041E02E
:100B100050E063E082E090E00E948F0041E050E00E
:100B200066E082E090E00E948F0041E050E067E0E4
:100B300082E090E00E948F0041E050E060E080E0C1
:100B400090E00E948F000E9453000E9425024B01FA
:100B50005C0141E050E065E082E090E00E94D60058
:100B600041E050E063E082E090E00E94D6001D8208
:100B7000198280E1C82E87E2D82EE12CF12C0E9448
:100B80002502681979098A099B096C157D058E056E
:100B90009F0508F447C040E050E063E082E090E049
:100BA0000E94D60041E050E064E080E090E00E94C6
:100BB000D6000E9425026B017C010E9425026C195F
:100BC0007D098E099F09683873418105910508F4F4
:100BD00051C040E050E064E0CA010E94D60040E00D
:100BE00050E065E082E090E00E94D60041E050E0F5
:100BF00065E0CA010E94D60041E050E064E0CA010D
:100C00000E94D6000E94250269837A838B839C838D
:100C10000E9425026B017C010E9425024B015C01B0
:100C20001D8253C00E94530060E081E090E00E946A
:100C30001A01019759F42981211108C038EEC31A0D
:100C400033E0D30AE108F10841E0498361E081E043
:100C500090E00E941A01019709F091CF5D81511136
:100C60008ECF88EEC81A83E0D80AE108F10891E037
:100C70009D8385CF0E945300A0CF0E9453000E9405
:100C800025026C197D098E099F09683E7340810514
:100C90009105C0F00E9425026B017C010E94250293
:100CA0006C197D098E099F096536710581059105CD
:100CB00008F452C040E050E066E082E090E00E941C
:100CC000D600AECF4D814111E9CF0E942502298186
:100CD0003A814B815C81621B730B840B950B6838E6
:100CE00073418105910548F24BE049831A820E94C5
:100CF00025024B015C010E9425026B017C010E94D0
:100D00002502681979098A099B09643F71408105A8
:100D10009105C0F165E081E090E00E943701898192
:100D20009A81019789839A83892B09F740E050E0E3
:100D300065E081E090E00E94D60040E050E066E08F
:100D400082E090E00E94D60040E050E064E081E064
:100D500090E00E94D600F7CE0E9425026815790522
:100D60008A059B0561F066E082E090E00E94370111
:100D70000E9425024B015C0151E05D83A6CF81E01A
:100D80008D83A3CF0E9453000E9425026819790920
:100D90008A099B09603571058105910570F40E94EF
:100DA00025026C157D058E059F0509F4A8CF66E028
:100DB00082E090E00E9437019ECF40E050E066E084
:100DC00082E090E00E94D6009ACFA29FB001B39F2C
:100DD000C001A39F700D811D1124911DB29F700D44
:100DE000811D1124911D0895A1E21A2EAA1BBB1B7F
:100DF000FD010DC0AA1FBB1FEE1FFF1FA217B307E7
:100E0000E407F50720F0A21BB30BE40BF50B661FFC
:100E1000771F881F991F1A9469F7609570958095C0
:100E200090959B01AC01BD01CF010895AA278111C6
:100E30000C941E07A8E0892BD9F70895A3958695F1
:100E4000E8F78A2F992708950E94E506A59F900D3F
:100E5000B49F900DA49F800D911D11240895F894C6
:020E6000FFCFC2
:100E6200010707020703040506010008004000000D
:100E72000100040100080020004000800000010081
:020E820004006A
:00000001FF
